{
  "contractName": "Voting",
  "abi": [
    {
      "inputs": [
        {
          "internalType": "string[]",
          "name": "candidateNames",
          "type": "string[]"
        }
      ],
      "stateMutability": "nonpayable",
      "type": "constructor"
    },
    {
      "inputs": [],
      "name": "admin",
      "outputs": [
        {
          "internalType": "address",
          "name": "",
          "type": "address"
        }
      ],
      "stateMutability": "view",
      "type": "function"
    },
    {
      "inputs": [
        {
          "internalType": "uint256",
          "name": "",
          "type": "uint256"
        }
      ],
      "name": "candidates",
      "outputs": [
        {
          "internalType": "string",
          "name": "",
          "type": "string"
        }
      ],
      "stateMutability": "view",
      "type": "function"
    },
    {
      "inputs": [
        {
          "internalType": "address",
          "name": "",
          "type": "address"
        }
      ],
      "name": "hasVoted",
      "outputs": [
        {
          "internalType": "bool",
          "name": "",
          "type": "bool"
        }
      ],
      "stateMutability": "view",
      "type": "function"
    },
    {
      "inputs": [
        {
          "internalType": "string",
          "name": "",
          "type": "string"
        }
      ],
      "name": "votesReceived",
      "outputs": [
        {
          "internalType": "uint256",
          "name": "",
          "type": "uint256"
        }
      ],
      "stateMutability": "view",
      "type": "function"
    },
    {
      "inputs": [
        {
          "internalType": "string",
          "name": "candidate",
          "type": "string"
        }
      ],
      "name": "vote",
      "outputs": [],
      "stateMutability": "nonpayable",
      "type": "function"
    },
    {
      "inputs": [
        {
          "internalType": "string",
          "name": "candidate",
          "type": "string"
        }
      ],
      "name": "validCandidate",
      "outputs": [
        {
          "internalType": "bool",
          "name": "",
          "type": "bool"
        }
      ],
      "stateMutability": "view",
      "type": "function"
    },
    {
      "inputs": [
        {
          "internalType": "string",
          "name": "candidate",
          "type": "string"
        }
      ],
      "name": "getVotes",
      "outputs": [
        {
          "internalType": "uint256",
          "name": "",
          "type": "uint256"
        }
      ],
      "stateMutability": "view",
      "type": "function"
    }
  ],
  "bytecode": "0x60806040523480156200001157600080fd5b50604051620010ba380380620010ba833981810160405281019062000037919062000320565b336000806101000a81548173ffffffffffffffffffffffffffffffffffffffff021916908373ffffffffffffffffffffffffffffffffffffffff16021790555080600190805190602001906200008f92919062000097565b5050620004c5565b828054828255906000526020600020908101928215620000eb579160200282015b82811115620000ea578251829080519060200190620000d9929190620000fe565b5091602001919060010190620000b8565b5b509050620000fa91906200018f565b5090565b8280546200010c9062000431565b90600052602060002090601f0160209004810192826200013057600085556200017c565b82601f106200014b57805160ff19168380011785556200017c565b828001600101855582156200017c579182015b828111156200017b5782518255916020019190600101906200015e565b5b5090506200018b9190620001b7565b5090565b5b80821115620001b35760008181620001a99190620001d6565b5060010162000190565b5090565b5b80821115620001d2576000816000905550600101620001b8565b5090565b508054620001e49062000431565b6000825580601f10620001f8575062000219565b601f016020900490600052602060002090810190620002189190620001b7565b5b50565b6000620002336200022d8462000399565b62000365565b9050808382526020820190508260005b858110156200027757815185016200025c8882620002f3565b84526020840193506020830192505060018101905062000243565b5050509392505050565b6000620002986200029284620003c8565b62000365565b905082815260208101848484011115620002b157600080fd5b620002be848285620003fb565b509392505050565b600082601f830112620002d857600080fd5b8151620002ea8482602086016200021c565b91505092915050565b600082601f8301126200030557600080fd5b81516200031784826020860162000281565b91505092915050565b6000602082840312156200033357600080fd5b600082015167ffffffffffffffff8111156200034e57600080fd5b6200035c84828501620002c6565b91505092915050565b6000604051905081810181811067ffffffffffffffff821117156200038f576200038e62000496565b5b8060405250919050565b600067ffffffffffffffff821115620003b757620003b662000496565b5b602082029050602081019050919050565b600067ffffffffffffffff821115620003e657620003e562000496565b5b601f19601f8301169050602081019050919050565b60005b838110156200041b578082015181840152602081019050620003fe565b838111156200042b576000848401525b50505050565b600060028204905060018216806200044a57607f821691505b6020821081141562000461576200046062000467565b5b50919050565b7f4e487b7100000000000000000000000000000000000000000000000000000000600052602260045260246000fd5b7f4e487b7100000000000000000000000000000000000000000000000000000000600052604160045260246000fd5b610be580620004d56000396000f3fe608060405234801561001057600080fd5b506004361061007d5760003560e01c8063805265e51161005b578063805265e5146101125780638d4b44d914610142578063f851a44014610172578063fc36e15b146101905761007d565b806309eef43e146100825780633477ee2e146100b2578063538c91b2146100e2575b600080fd5b61009c600480360381019061009791906105d6565b6101ac565b6040516100a99190610848565b60405180910390f35b6100cc60048036038101906100c79190610640565b6101cc565b6040516100d99190610863565b60405180910390f35b6100fc60048036038101906100f791906105ff565b610278565b6040516101099190610848565b60405180910390f35b61012c600480360381019061012791906105ff565b61031c565b60405161013991906108c5565b60405180910390f35b61015c600480360381019061015791906105ff565b61038c565b60405161016991906108c5565b60405180910390f35b61017a6103ba565b604051610187919061082d565b60405180910390f35b6101aa60048036038101906101a591906105ff565b6103de565b005b60036020528060005260406000206000915054906101000a900460ff1681565b600181815481106101dc57600080fd5b9060005260206000200160009150905080546101f790610a68565b80601f016020809104026020016040519081016040528092919081815260200182805461022390610a68565b80156102705780601f1061024557610100808354040283529160200191610270565b820191906000526020600020905b81548152906001019060200180831161025357829003601f168201915b505050505081565b600080600090505b600180549050811015610311578280519060200120600182815481106102cf577f4e487b7100000000000000000000000000000000000000000000000000000000600052603260045260246000fd5b906000526020600020016040516102e691906107ff565b604051809103902014156102fe576001915050610317565b808061030990610a9a565b915050610280565b50600090505b919050565b600061032782610278565b610366576040517f08c379a000000000000000000000000000000000000000000000000000000000815260040161035d906108a5565b60405180910390fd5b6002826040516103769190610816565b9081526020016040518091039020549050919050565b6002818051602081018201805184825260208301602085012081835280955050505050506000915090505481565b60008054906101000a900473ffffffffffffffffffffffffffffffffffffffff1681565b600360003373ffffffffffffffffffffffffffffffffffffffff1673ffffffffffffffffffffffffffffffffffffffff16815260200190815260200160002060009054906101000a900460ff161561046b576040517f08c379a000000000000000000000000000000000000000000000000000000000815260040161046290610885565b60405180910390fd5b61047481610278565b6104b3576040517f08c379a00000000000000000000000000000000000000000000000000000000081526004016104aa906108a5565b60405180910390fd5b60016002826040516104c59190610816565b908152602001604051809103902060008282546104e29190610988565b925050819055506001600360003373ffffffffffffffffffffffffffffffffffffffff1673ffffffffffffffffffffffffffffffffffffffff16815260200190815260200160002060006101000a81548160ff02191690831515021790555050565b600061055761055284610911565b6108e0565b90508281526020810184848401111561056f57600080fd5b61057a848285610a26565b509392505050565b60008135905061059181610b81565b92915050565b600082601f8301126105a857600080fd5b81356105b8848260208601610544565b91505092915050565b6000813590506105d081610b98565b92915050565b6000602082840312156105e857600080fd5b60006105f684828501610582565b91505092915050565b60006020828403121561061157600080fd5b600082013567ffffffffffffffff81111561062b57600080fd5b61063784828501610597565b91505092915050565b60006020828403121561065257600080fd5b6000610660848285016105c1565b91505092915050565b610672816109de565b82525050565b610681816109f0565b82525050565b6000815461069481610a68565b61069e8186610961565b945060018216600081146106b957600181146106ca576106fd565b60ff198316865281860193506106fd565b6106d385610941565b60005b838110156106f5578154818901526001820191506020810190506106d6565b838801955050505b50505092915050565b600061071182610956565b61071b818561096c565b935061072b818560208601610a35565b61073481610b70565b840191505092915050565b600061074a82610956565b610754818561097d565b9350610764818560208601610a35565b80840191505092915050565b600061077d60178361096c565b91507f596f75206861766520616c726561647920766f7465642e0000000000000000006000830152602082019050919050565b60006107bd60128361096c565b91507f496e76616c69642063616e6469646174652e00000000000000000000000000006000830152602082019050919050565b6107f981610a1c565b82525050565b600061080b8284610687565b915081905092915050565b6000610822828461073f565b915081905092915050565b60006020820190506108426000830184610669565b92915050565b600060208201905061085d6000830184610678565b92915050565b6000602082019050818103600083015261087d8184610706565b905092915050565b6000602082019050818103600083015261089e81610770565b9050919050565b600060208201905081810360008301526108be816107b0565b9050919050565b60006020820190506108da60008301846107f0565b92915050565b6000604051905081810181811067ffffffffffffffff8211171561090757610906610b41565b5b8060405250919050565b600067ffffffffffffffff82111561092c5761092b610b41565b5b601f19601f8301169050602081019050919050565b60008190508160005260206000209050919050565b600081519050919050565b600081905092915050565b600082825260208201905092915050565b600081905092915050565b600061099382610a1c565b915061099e83610a1c565b9250827fffffffffffffffffffffffffffffffffffffffffffffffffffffffffffffffff038211156109d3576109d2610ae3565b5b828201905092915050565b60006109e9826109fc565b9050919050565b60008115159050919050565b600073ffffffffffffffffffffffffffffffffffffffff82169050919050565b6000819050919050565b82818337600083830152505050565b60005b83811015610a53578082015181840152602081019050610a38565b83811115610a62576000848401525b50505050565b60006002820490506001821680610a8057607f821691505b60208210811415610a9457610a93610b12565b5b50919050565b6000610aa582610a1c565b91507fffffffffffffffffffffffffffffffffffffffffffffffffffffffffffffffff821415610ad857610ad7610ae3565b5b600182019050919050565b7f4e487b7100000000000000000000000000000000000000000000000000000000600052601160045260246000fd5b7f4e487b7100000000000000000000000000000000000000000000000000000000600052602260045260246000fd5b7f4e487b7100000000000000000000000000000000000000000000000000000000600052604160045260246000fd5b6000601f19601f8301169050919050565b610b8a816109de565b8114610b9557600080fd5b50565b610ba181610a1c565b8114610bac57600080fd5b5056fea26469706673582212203b75a67a3b7ae2f0625648dfcf28116a62ac812a9f8b4d16a76f91e30def0a9764736f6c63430008000033",
  "immutableReferences": {},
  "source": "\n// SPDX-License-Identifier: MIT\npragma solidity ^0.8.0;\n\ncontract Voting {\n    address public admin;\n    string[] public candidates;\n    mapping(string => uint256) public votesReceived;\n    mapping(address => bool) public hasVoted;\n\n    constructor(string[] memory candidateNames) {\n        admin = msg.sender;\n        candidates = candidateNames;\n    }\n\n    function vote(string memory candidate) public {\n        require(!hasVoted[msg.sender], \"You have already voted.\");\n        require(validCandidate(candidate), \"Invalid candidate.\");\n        votesReceived[candidate] += 1;\n        hasVoted[msg.sender] = true;\n    }\n\n    function validCandidate(string memory candidate) view public returns (bool) {\n        for(uint i = 0; i < candidates.length; i++) {\n            if (keccak256(bytes(candidates[i])) == keccak256(bytes(candidate))) {\n                return true;\n            }\n        }\n        return false;\n    }\n\n    function getVotes(string memory candidate) public view returns (uint256) {\n        require(validCandidate(candidate), \"Invalid candidate.\");\n        return votesReceived[candidate];\n    }\n}\n",
  "sourcePath": "D:\\Internship Tasks\\blockchain technology\\voting-system\\contracts\\Voting.sol",
  "compiler": {
    "name": "solc",
    "version": "0.8.0+commit.c7dfd78e.Emscripten.clang"
  },
  "schemaVersion": "3.4.16",
  "updatedAt": "2025-07-24T12:58:39.163Z",
  "devdoc": {
    "kind": "dev",
    "methods": {},
    "version": 1
  },
  "userdoc": {
    "kind": "user",
    "methods": {},
    "version": 1
  }
}